:10700000E894F894A8952224332400E800936100C2
:107010002092610024BE00E90093600008E0009324
:107020006000F8E0EFEFFEBFEDBF3C98449A3D985A
:10703000459A219A299A579A5F9A32BC21BCF89AAC
:1070400000B400FC37C0B6F1F1010490009491F156
:10705000FCD181F5349B2EC00C940000AEA164AF2E
:107060001B5B6D8181553A2091423A204330324278
:107070003030303181463A2083453A208581424C78
:1070800044205B617C657C667C785D3E2000813AB3
:1070900031301B5B39346D881B5B6D303000818172
:1070A0001B5B39316D5B2044415441204552524FA6
:1070B00052205D0024BC05E005BD00E0359B07E6DD
:1070C0000093CC0008E10093C90006E00093CA00D9
:1070D0002598229A5F98F8E0EFEFFEBFEDBF2227D8
:1070E00034E0E0E6C1D05AD02034A9F324FD16C024
:1070F00026FFF9CF013609F42AC0083709F425C064
:107100000536A9F00636B1F0003469F7206233D0B5
:10711000713B620541F7206131E0E5CF20FFE3CF0D
:10712000003409F728D0713BF1F6B7D0DCCF68E026
:10713000B4D0D1CF68E1B1D0CECFE101672C48D037
:107140006710FBCF2197D9F70895F7DFFFCFF10143
:107150000490009439F079D129F4C10157D1EDDFC1
:107160000C940000C0CFF49940D1EEE97DD032E01C
:10717000672C2ED0FCCF04D0702F02D0602F089542
:1071800007D002950F9304D00F900029E00E0895C8
:1071900005D00F7D075308F4095D089519D04210FA
:1071A00002C025FD98CF7614C9F3B1E0A62D0C914D
:1071B0006394206442102F7B26FD2F7EB7E04B2E78
:1071C00021FF23950A3011F00D3009F42C7F08952A
:1071D0000D01A72DA619A03208F42A98A03C08F0AA
:1071E0002A9AA091C800A7FF06C0B1E0A72D709011
:1071F000CE007D927A2ED001A895A89B0895A89ADA
:10720000761411F442104A94FA9412F4F32E199A57
:10721000089501D003C00F93029501C00F930F7022
:10722000005D0A3308F0095F13D00F910895092F0C
:10723000F0DF082FEECF0AE00BD00DE009C0EEE042
:10724000F0E001E207BF0591E4DFE831D0F30895F3
:10725000D0E1BEDF0090C80005FEFBCF21971D994D
:10726000C1F70093CE000895EF93F0E7EF911591E9
:10727000112391F0EF931AF0012FEADFF6CF60E1CE
:1072800011FDF6D060E012FDF3D013FDD0DF14FD48
:10729000D6DF10FDD0DFE9CF08956EBB3DD0F09969
:1072A00001D1F19909D0F399E8D0F299D7D0F699A4
:1072B0004ECFF7994ACF08952ABC3BBC6FDF20FF21
:1072C000FDCF0A33D9F75CDF502EE52C54DFCB011C
:1072D0006AB57BB5860F971F53DF003029F0013068
:1072E000B1F0023051F016C00894520870F0E2D0AC
:1072F00088F446DFE5D00196F7CF3DDFE0E17E9FE1
:10730000F02D6E9FF10D0ABCFBBD02D0D7CF4FD040
:1073100037DFE21028CF08956A01C0E8D2E05E01AD
:107320000895C0E0D2E0089500E780309007089506
:10733000FC01049108950F9303D00F9108830895E1
:1073400005D018F434D00CD018D00AC08417950793
:1073500028F08C159D0510F48894089508940895DC
:10736000AC0140785F7FEA01C058DF4F6E01EC014D
:10737000C41BD50BC050DE4F0895D3DFFA0128DFC0
:1073800005900992CA15DB05D0F30895CADFFA010A
:10739000AFEFBFEF00271CDF05901990A021B121AE
:1073A00010100FEFCA15DB05B0F300230895C416C3
:1073B000D50641F0EBDF31F0AF3F29F0BF3FB1F030
:1073C00015D001D00895ADDFF1010990199001E0C9
:1073D00012D03296CA15DB05C0F3FA0105E009D0D8
:1073E000D5DF09F0C0CE6A010895A101FA0103E0DA
:1073F00000C001D001E107BFE895EADE07B600FC56
:10740000FCCF089504E08030900708956FEF0DD011
:1074100051F0F4E1FFBBF99ADBDEF999FDCF05D01D
:1074200011F02068A0CE0895602F92BD81BDF89A1A
:1074300000B5061708950F3F49F3F6DFA1F360BDCD
:10744000F4E20F3F39F3F4E0E5CF60E13FD0F4011F
:10745000F03C19F4EF3209F0EB32089538D0D40142
:10746000B03C21F4AF31F49BAE3109F07CCE0895ED
:107470002DD0C401DCDECD01DACEDDDEC101EEE8C7
:10748000F3DE00E1090F080FE02E17D0E00E0196A1
:10749000C0DE082F0F70C9F7E1940E2DBADE0AD0B6
:1074A00070F30895C10194DE0FEF0AD0019602D067
:1074B000D0F309C0F49BA6CF37CFF49BB6CF38CF1B
:1074C000F49BB9CF38CFF49972CF08956EBBF4997D
:1074D00023DFDDEEC8EB73E860E2D10111974D01C7
:1074E000C10176DEEADF089407950A2E021C969405
:1074F0008794B795A79500FE04C09D268C26B727D4
:10750000A627069591F70196D5DF58F390948094BD
:10751000B095A0950895FFFFFFFFFFFFFFFFFFFF5E
:107F0000FFCFF10103E015D003E0FE0112D060E4E1
:107F1000FD0105901590FE0101E00BD0129622960E
:107F20006A95B1F705E005D07A9571F7FFCF01D0DA
:107F300001E1002E07BEE895A89507B600FCFCCF2E
:107F40000895FFFFFFFFFFFFFFFFFFFFFFFFFFFFA2
:107FF000FFFFFFFFFFFF05C884CF9BCF99CF97CF2F
