@b100 
;------------------------------------------ 
; DPM update C02F0001 
; 
; Sun 07/14/2024 
; 
; Erase EEprom 
; @b101 
;------------------------------------------ 
@b113 
:020000020000FC 
:100000000C9403010C94070B0C9430010C943001F8
:100010000C9430010C9430010C9430010C9430019C
:100020000C9430010C9430010C944E090C94AA02EB
:100030000C9466090C9430010C9430010C9430013E
:100040000C9430010C9430010C943A0B0C941F0B5F
:100050000C9430010C94CF080C9430010C943001B6
:100060000C9430010C9430010C9430010C9430014C
:100070000C942B070C940D070C9430010C94300158
:100080000C9430010C9430010C9430010C9430012C
:100090000C9430010C9430010C9430010C9430011C
:1000A0000C9430010C94890E0C9430010C943001A6
:1000B0000C943001E0E0F0E0BEEF48D10E94E30490
:1000C0000E9413130E94A0080E94E7130E949E162C
:1000D0000E9486000C942C0238E335B93EE034B916
:1000E00033E738B930E037B93BE83BB932EF3AB9DA
:1000F0003FE03EB930E03DB930E035BF0895D0E88B
:10010000ADC364BC7312089571C170C1F1E0E0E445
:10011000A5E5D591C591DF3F11F0A883FACF0895E9
:10012000F1E0E0E4B5E5A7ECA395D591C591DF3FFB
:1001300031F008800B16C1F3A0950C94840008954B
:1001400001AF018F018D018B018901870185018339
:10015000016FFFFFC0930101D093020130930301AF
:1001600005D63091030103D63CE22AD6C0910101A5
:10017000D0910201309103010895C0930101D09301
:10018000020130930301B32FA7E030E33A0F009050
:100190000301000C0092030108F03DE211D6A150CA
:1001A000A0F73CE20DD6C0910101D091020130913F
:1001B00003010895C0930101D0930201309303011C
:1001C0003DE0FED53AE0FCD5C0910101D09102019D
:1001D000309103010895C3C0089568940C94FB3FC7
:1001E000BBD07894D4BEE8E9E0936000E8E0E09307
:1001F0006000FFCFE5E0F0E0A1C0E5E0F0E0A6C0E0
:10020000E5E0F0E0A6C0DD2430E830936100D09254
:100210006100A89530E034BF3091600030693093C0
:10022000600030E03093600057DFDDBAD092C1004B
:10023000D092C900D0926E00D0926F00D092700020
:10024000D0927100D0927200E0E0F1E0CFEFD7E001
:10025000D1922197E8F7E2E8F1E0EDBFFEBF2ACFA7
:10026000A3E00C948400BB277E01BF01119728F006
:1002700001901990011411F4F9CF1894E701FB01D2
:100280000895BB27119718F009900192FBCF0895AC
:10029000BB27119718F005900992FBCF0895BB2753
:1002A00002C0BB27DD27119710F0D193FCCF089532
:1002B000B15010F0A193FCCF0895BB27119720F007
:1002C000D083EC0FFD1DFACF0895A99123D031966C
:1002D000BA95D9F7089581E031D03196A883C80F37
:1002E000DD1DBA95C9F7089598E0B69510F4B06889
:1002F00011D031969A95C9F708950CD03196BA95D8
:10030000E1F70895A99306D03196BA95B1F708950B
:10031000002401C00F2EF999FECF02BCE1BDF89A6E
:1003200000B4A01541F0FD98FC98A0BD0FB6F8945C
:10033000FA9AF99A0FBE0895002401C00F2EF99978
:10034000FECF02BCE1BDF89AA0B50895F7DFAB235C
:10035000E1CFF4DFAB2BDECFF999FECF08950895FE
:10036000B15021F0A850E0F7AA270895A770002403
:100370000894001CAA95EAF7A02D08950E2E069465
:1003800006940694E770F0E0EE56FC4FE491F02DF1
:1003900008950102040810204080BB27A85010F0E7
:1003A000B395FCCFA85FE2CFB03081F0A83028F041
:1003B000A850D192BA95D1F709C00024001CAA9583
:1003C000EAF70192BA9511F0D192FCCF0895A830C6
:1003D00028F03196A850BA95D1F707C00024001C28
:1003E000AA95EAF7A081A029A0830895F8942998F6
:1003F000CC27A8951197E9F7CA95DAF3199AF6CFA1
:10040000EEE0F0E0EA0FB1E2B7BFC8950895F9E079
:10041000E4EBD1E0C4E0A2E1B0E00E94490115D0D4
:1004200031D03AD043D04CD055D05ED067D072D0C6
:100430007DD022272224D9E0C9E9C0934601D09378
:100440004701CDE7C09349010895E4E0F1E0E0936E
:100450003D01F0933E0108954ED20E947121332454
:100460004424552430918100316030938100789488
:1004700031E0330E4D1C5D1C000000002220C9F34A
:1004800095D1F6CFE9E4F2E0E0938401F0938301A3
:100490000895AAE00C948400E3E5F2E0E09386017D
:1004A000F09385010895ABE00C948400EDE5F2E053
:1004B000E0938801F09387010895ACE00C948400E8
:1004C000E7E6F2E0E0938A01F09389010895ADE058
:1004D0000C948400E1E7F2E0E0938C01F0938B014F
:1004E0000895AEE00C948400EBE7F2E0E0938E0117
:1004F000F0938D010895AFE00C948400E5E8F2E0FC
:10050000E093AE01F093AD0108950C947421A0E145
:100510000C948400E1E9F2E0E093C601F093C50198
:1005200008950C948D21A1E10C948400D092810057
:10053000D0928000D0928500D092840037E236BB02
:1005400032E030936F003FE13093890030E4309324
:1005500088000895CFB6C092510120FDCFC0216020
:100560007894F0935201E0935301D0935401C093D7
:100570005501B0935601A093570190935801809371
:10058000590130935A0110925B0100925C01F8947A
:10059000639409F4739478940000F894E0918800CF
:1005A000F0918900E0935D01F0935E01E05CF04E14
:1005B000F0938900E09388007894C0914801C39536
:1005C000C093480109F42860CF7009F42460C0FD8D
:1005D00036C02061A0914901A15010F4ACE722601F
:1005E000A0934901A0914401B09145011196A83E04
:1005F00069F4B33059F4A0914201B09143011196CE
:10060000A0934201B0934301AA27BB27F894A0937B
:100610004401B09345017894D0914701C0914601BF
:10062000C15015F42062C97F10F42064C979D0400C
:1006300010F42068D970D0934701C093460126FD7D
:10064000DEBA27FD5FD080D00E941B1327FD0E94D9
:100650007F0021FF0AC0C0913F01C7FF2998C7FD55
:10066000299ACC0FCD1DC0933F0124FF09C0C09132
:100670004001C7FF5F98C7FD5F9ACC0FC093400150
:1006800024FF1AC0CAE1D1E0A1E0E881F9813197E5
:1006900080F0E883F98369F42A2AEA81FB81FE2B42
:1006A00041F0FB810180A0950A22A0950182DA82A7
:1006B000DB822496AA0F49F7EDE5F1E00E948B0456
:1006C0000E94960400905C0110905B0130915A01E9
:1006D0008091590190915801A0915701B091560114
:1006E000C0915501D0915401E0915301F091520114
:1006F000F8942070C0905101CFBE18955F9AA2E087
:100700000C948400E201D695C795DF70C07FCD2B95
:10071000C295C095D4E6CD9F10924A01332444245B
:100720005524D0915001C0914F01C0934D01D093F9
:100730004E01D0925001D0924F0160924B017092C5
:100740004C01772466240895E0914801EF70E0930E
:100750004101EE0FF0E0E155FC4F099408950C942F
:10076000AE030C941D130C941E130C94AE030C9446
:10077000AE030C94AE030C94AE030C94AE030C9435
:10078000AE030C94AE030C94AE030C94AE030C9425
:10079000AE030C94AE030C94AE030C94AE03F09134
:1007A0003A01FF0F11F02F1608F40895E0914F0160
:1007B000F09150013196E0934F01F0935001C091B8
:1007C0003D01D0913E01EDB7FEB7E993F883E0E239
:1007D000F22DC0E8FF0F30F019F0C695E450D1F7C4
:1007E000CC27EE27C0933A01E0933C01E695E093D5
:1007F0003B01D1E0C4E0CE0FDD1DC0933D01D0939D
:100800003E01E991F881CFB7F894EDBFFEBFCFBFAD
:1008100008959927C0913C01D0E0CA5EDE4FBFB772
:10082000F89488839983D0913A01D0952D22BFBF47
:10083000BDDFC0913C01D0E0CA5EDE4FBFB7F89487
:1008400088819981D882D982BFBFEC01DC2B0895C1
:1008500007D0ACCF03D0AACFD0913A012D2A08956A
:10086000D0913A01D0952D220895D192D082089549
:10087000689401C0E894D0913A01BFB7F894C1914F
:10088000CC2321F0CE7FC293BFBF0895C081CD2B72
:10089000C083BFBF0EF0DCCFBDCFBFB7F894C0811F
:1008A000D181DD2321F4C160C083BFBF0895D08210
:1008B000D182BFBF0DC0BFB7F894D081D260D193B1
:1008C000D081DD2311F4BFBF0895D082BFBF00C027
:1008D000E6E1F1E0CD2F3496CC0F41F0E0F7F8944B
:1008E000D192D192D192D192BFBFF6CFB7CFD08261
:1008F0000895299A089529980895F89400908400FD
:10090000109085007894008211820895A09188004B
:10091000B091890002C0A081B181F8940090840058
:100920001090850078940A1A1B0A08950282138297
:10093000A481B5810A161B0610F404821582A681D3
:10094000B781A015B10510F4068217820895AFEFA4
:10095000BFB7F894D682D782A483A583BFBF08957A
:10096000C4E6D1E0E6E9F9E09FEF2196A591B591C3
:1009700085918230D1F360F031E00D90002019F4C0
:1009800033958A95D1F73993391780F7932FEECFA6
:1009900090936E010895700114840102860102880B
:1009A00001028A01028C01028E0102900120B00135
:1009B00018FFFF00820182018401860188018A01FB
:1009C0008C01AC01C4019FDB06DC21CD30E2309309
:1009D000C70108953DE0F4D13AE0F2C13DE0F0C135
:1009E00037E0EEC139E0ECC1E091CC01F091CD01EE
:1009F0000895E093CC01F093CD0108953091C701A3
:100A00003D11DEC1089503D002D001D000D030E204
:100A1000D7C180E2382F9D11D3D19150D8F70895D6
:100A200030E009C030E107C038E205C038E103C05A
:100A300038E001C030EF3093CB019927885E9340B6
:100A400064C138E40CC038E30AC038E208C030E2C0
:100A500006C038E104C030E002C0992738E0309386
:100A6000CB016627805A9648614042C138E701C0F1
:100A700038E03093CB01772725C1382F082E76D167
:100A8000302D75C19DD135913D11FCCF0895359123
:100A9000332399F012F094D1FACFE093CC01F09384
:100AA000CD01CF01EEE5F5E03F77E30FFD1D0995A0
:100AB000E091CC01F091CD01EACF089508954EC0A8
:100AC00055C056C026C028C02CC030C053C058C026
:100AD00060C05CC061C087C088C089C094C095C038
:100AE00096C097C098C0A5C0A6C0A7C0A8C0A9C0FE
:100AF000AAC0ABC0ACC01CC157C05CC060C064C061
:100B000068C005C06EC21BC01EC022C026C00C94A7
:100B1000A819D092D40108958091D4018093C9017D
:100B200008958091C9018093D4010895FC019591A5
:100B300060DF8091D401981B08F06BCF0895FC0111
:100B4000859157DF1EC2FC019591859152DF07C246
:100B5000FC01B591A5914DDFF9C13CCFA0E050DC7F
:100B6000802D8BDFA395AA30D0F3089530E205C025
:100B7000332703C0FC0135913CDF3093C701089552
:100B8000FC01A591B59135DFFD010994FC0130E22E
:100B900005C0FC013DE302C0FC013591B59129DFA0
:100BA0000FD1BA95E9F70895FC01B591A59121DF20
:100BB0003C91DDC0FC01B591A5911BDF12C0FC0189
:100BC000B591A59116DF0CC0FC01B591A59111DF7F
:100BD00006C0FC01B591A5910CDF00C002D001D088
:100BE00000D08D914ACF30E203C030E101C030E047
:100BF0003093CB01FC01B591A5918D91FADE992737
:100C0000885E934082C030E407C030E305C030E224
:100C100003C030E101C030E03093CB01FC01B5915D
:100C2000A5918D919D91E5DE6627805A9648614099
:100C30005FC030E70DC030E60BC030E509C030E4DE
:100C400007C030E305C030E203C030E101C030E04E
:100C500038603093CB01FC01B591A5918D919D91A8
:100C60006D91C7DE77272EC030E9F2CF30E8F0CFA4
:100C700030E7EECF30E6ECCF30E5EACF30E4E8CF36
:100C800030E3E6CF30E2E4CF30E1E2CF30E0309342
:100C9000CB01FC01B591A5918D919D916D917D91B7
:100CA000A8DE00C03FE2339580509A4C6A497B43EE
:100CB000D0F74DD03AE33A9580509F416A407A4F41
:100CC000D0F345D03FE2339580589649684970404B
:100CD000D0F73DD03AE33A95805C9D4B604FD8F316
:100CE00036D03FE23395805A96486140D8F72FD0EE
:100CF0003AE33A95805F984D6F4FD8F328D03FE2A2
:100D00003395885E9340E0F722D03AE33A958C59C8
:100D10009F4FE0F31CD03FE233958A50E8F717D09D
:100D2000865C382F8091CB01877F8093CB010FC0E9
:100D3000FC01B591A5915DDE8C9197E03DE2880FB5
:100D400010F4392F305D3CD09150C0F70895D09108
:100D5000CB01303339F4D3FD30E2D05130F0D093B1
:100D6000CB010895D770D093CB012AC032953F7044
:100D70003A3008F0395D305DEACF11D016D0F0E09E
:100D8000E0E0F093CD00E093CC00E0E0E093C80019
:100D9000E8E9E093C900E6E0E093CA000895E5EDD4
:100DA000E093CF01E093CE010895E0E0E093D1011C
:100DB000E093D0010895C091C900C062C093C900FA
:100DC000D091D001C091D101DA95CD17A1F3D2E035
:100DD0003993C093D101D091D001CD1BD091D201D4
:100DE000DC1710F4C093D201C091D401C395C09315
:100DF000D401C091C900C062C093C9000895B5E68E
:100E0000A091D201AB9F1092D301A091D001B091DB
:100E1000D101BA1BB093D2010895CFB64F016394AC
:100E200009F473941D990FC0E091D001F091D101A4
:100E3000FE1749F0F2E041914093CE00E093D001DB
:100E4000F401CFBE1895E091C900EF7DE093C90091
:100E5000F401CFBE1895CFB64F01639409F4739493
:100E60004091CE00F1E0E091CF014193E53E09F4DD
:100E7000E5EDE093CF01F091CE01E55DF55DEF1B6F
:100E800008F4E05FE83008F02A9AF401CFBE189524
:100E9000D091CF01C091CE01CD1799F0D1E0399119
:100EA000C53E09F4C5EDC093CE01D091CF01C55D1B
:100EB000D55DCD1B08F4C05FC83008F42A9898941B
:100EC00008952A980895E8E4E093020308956AE0FB
:100ED00009C06A95D9F0FFE0E6E1D9DD80E991E04B
:100EE0000E940A048AE090E00E940A041D99EFCF54
:100EF000FFE0E0E1CCDD8AE590E00E940A04BDD08D
:100F000041F33D3019F0313921F708950C94C91C93
:100F10000D1B5B356E00434F4D3D314D622F384EFA
:100F200031202D205B77616974696E6720666F726E
:100F3000207465726D696E616C20726573706F6E7E
:100F40007365202E2E2E205DA800A1E057D08B2F98
:100F500071DD3BE335DF8A2F6DDD38E431CF1BD007
:100F6000392F2DD071F0382F2AD081F080910003D5
:100F700045D060DD3BE324DF809101035BDD3DE68E
:100F80001FCF09D0382F1BD011F40895892F36D0E8
:100F900051DD3DE615CF3091060330FF08953F91B6
:100FA0003F910895E0910603F1E0EF27E0930603F7
:100FB0000895E0910603EE7FF9CFFBDFF3CF3832DF
:100FC00050F0323310F0343630F0D0910103D317A3
:100FD000309301030895D0910003D3173093000399
:100FE0000895D0920103D0920003D5DF07D030E3FB
:100FF000E7DE3DE6E5CE02D03BE4E2CE3BE1E0DEDB
:101000003BE5DECEDDDE35913323E1F708953A2F5F
:10101000D7CEA0910303B0910403009005031124DF
:10102000E4E4F0E13196319613943591303051F08B
:101030003015C1F735913A07B1F735913B07A1F764
:10104000312D30680895C10000C20000C30000C403
:101050000000FE0500FE0600FE0100FE0400FE1179
:1010600000FE1200FE1300FE1400FE1500FE170025
:10107000FE1800FE1900EE0000000ADF39F0E091D2
:101080000203F8E00994E0930203F7CF33270895B1
:1010900006C010C01AC026C02FC0E8E4F4CF3B3110
:1010A000B1F700C0D0920303D0920403D09205039D
:1010B000E9E4E9CF3B35A1F0303278F3303328F062
:1010C0003E3748F0EACFEAE4DECF303220F030336A
:1010D00010F427D0F8CF303300F33F37F0F62AC0B2
:1010E000EBE4D1CF3B33E1F3303330F0303420F454
:1010F0000FD0F6CFECE4C7CF303220F0303310F40D
:1011000010D0F8CF303448F23F3738F6306812C08C
:10111000F0910303F295F07F3053F32BF093030328
:101120000895F0910403F295F07F3052F32BF09381
:10113000040308953093050338E43093020369CF24
:1011400045DC1BDEC0CE5BCEECE0E0937E00E6E14A
:10115000E0937A000895E6E1E0937A00E8ECE0930A
:10116000E203E8EEE0937C00EFEDE0937A00E3EE3B
:10117000F3E003800782D3823196E73ED1F70895EA
:101180004091E2034C3C19F44EED40937A00EEC0DE
:1011900017C01EC023C028C02DC032C037C04F01A9
:1011A0004091780050917900E091E203F8E00994D1
:1011B0004093E203E0937C00F0937A00F4011895E9
:1011C0004093E3035093E403E3EEFEED49ECF0CFEC
:1011D0005093E503E2EEFEED4AECEACF5093E603CE
:1011E000E2EEFEED4BECE4CF5093E703E2EEFEE9D6
:1011F0004CECDECF5093E803E2EEFEED4DECD8CFA1
:101200005093E903EFEEF6E14EECD2CFEFEEF6E1CC
:101210004EECCECF8091E4039091E303990F881FA9
:10122000990F881F855F0895E0EDF4E0E093A40333
:10123000F093A503E0EDF4E0E093A603F093A70399
:10124000E0EEFBE0E093A803F093A903E0E8FEE101
:10125000E093AA03F093AB033BE93093AC0331E88E
:10126000B32E30916F00306230936F003091810067
:101270003168309381003AE030936900B5C1B09194
:101280000804B6FD0895B064BF77B09308040895CC
:10129000CB2DC07FD0E1CD27D3E00895CFB64F014D
:1012A0004091860050918700639409F473944093B1
:1012B000A0035093A103E091A403F091A5034E0F66
:1012C0005F1F50938B0040938A0015C0CFB64F012B
:1012D000E3B1F0918100F6FDE095E0FB639409F441
:1012E0007394E091AC03F9E00994F093AE03E89AAB
:1012F000E09AE093AC0340916F0044604F7D4093CF
:101300006F0044E246BBF401CFBE1895F093AE03E4
:10131000409169004E7F40936900E89AE09AE0931B
:10132000AC03B59A40916F004B7F406240936F00D1
:10133000F401CFBE18950BC00FC022C060C06EC0B4
:10134000A6C04CC58BC5A0C5AFC5C0C5C8C501608A
:101350001127ECE9FBE9DACFD092B503C6F7B599CE
:10136000F6CF13951A3008F4DCCF0ACF40918A00EB
:1013700050918B004093B0035093B103EDE9CFCF70
:10138000B599E5CF4EF4139531F41091B50313954B
:101390001093B5031127EACF0F701093B403619B2C
:1013A0000860E091A003F091A1034091B003509137
:1013B000B103E41BF50BE058F3404091810020F0AD
:1013C00050E445274093810046FD0062E0914401CE
:1013D000F0914501E093BA03F093BB03E091420121
:1013E000F0914301E093BC03F093BD03E0EFBE2214
:1013F000B394D092AF0300C011E0EEE990CF110F8B
:1014000010F908F08ECFF3E0EB2D1193BE2E409132
:10141000AF0341274093AF03EFE981CF4B2D4F70CE
:1014200016F051F794CF5091AF035D1160C0F3E017
:10143000EB2DE07F4A95408350E1E52710811D1197
:101440005DC040931803BE2EE5275AC04091C203E9
:1014500043954093C203E0911203F0911303319638
:10146000E0931203F0931303E0911403ED1DE09356
:10147000140312E0E0EA4091110443FF50CF82C40C
:10148000D092C100E898E0EAE093AC034BCF0EF0B5
:1014900010E0E091B903E395E093B903E091B40360
:1014A000F091B503E093B603F093B703E091BA036C
:1014B000F091BB03E093BE03F093BF03E091BC0344
:1014C000F091BD03E093C003F093C10300931B03AD
:1014D0000027E091B303EE2331F0D092B203D09213
:1014E000B3032E2A36CFE1E0E093B20332CF40912E
:1014F000C30343954093C303026029CF046027CF01
:101500004181403099F04038A0F0403CB8F1483E6D
:1015100010F14D3F41F04E3F19F050EC13E049C03F
:1015200050EC14E046C050EC15E043C050E811E028
:1015300040C0403720F01091F0031130B0F518E1B1
:101540005091110455FD05C050910B04451709F445
:10155000106750E02EC019E15091110455FF09C0E9
:1015600050910E04451750910F044281450709F42C
:10157000106751815F734281E2E01CC0440F440F49
:10158000528156955370452B5281E52F57FB52954A
:101590005095577050641EF41AE0E2E00BC01AE058
:1015A000E3FDE0FD1BE0E2E005C0E0E050EC12E00E
:1015B00001C0E1E010931703E0931903F0911803C1
:1015C000FA95FE1BF0931A034093150350931603EC
:1015D0003DCFC2ECD3E0E4ECF3E008800192D99275
:1015E000C43CD9F708950895E3E0F0E0F093C50016
:1015F000E093C400E6E0E093C200D092C100E2E0D4
:10160000E0931C03E6E0E0932003EDDF71C3CFB667
:101610004F01639409F47394E0916900E0FF05C001
:10162000E898E091AE03F9E0099407D006D005D020
:101630004A9BF6CFF401CFBE189500000895CFB6AF
:101640004F01639409F47394E091C703F3E051915F
:101650004081451731F4E091C100EF7DE093C10076
:1016600006C043954083E40F40814093C600F401D7
:10167000CFBE1895CFB64F01639409F47394E091EF
:10168000C603F3E05191408143954083451729F407
:101690005091C1005F775093C1005091C600E40F94
:1016A0005083F401CFBE1895E0911104E3FF0DC003
:1016B00000C0EDE1F3E00ED080933403E1E2F3E00B
:1016C00009D08093380322D08ECFEAE6F3E0AAE077
:1016D0000C945101882790819D1182609485048427
:1016E00011909A9522F081600114C9F380690895E0
:1016F000D0923403D0921E03D0921F03D0923803AD
:10170000C2E2D3E0D992C832E9F70895A0E4B3E089
:101710008FE498E18D939A95E9F7A0E4B3E0CDE1E9
:10172000D3E069916F8B86D085D0A6E4B3E0C1E2A7
:10173000D3E069916F8B7ED07DD07CD07BD07AD086
:1017400079D0A8E5B3E0FD018FE19FEF9087819309
:10175000E036E1F7C0E4D3E0F3D0803849F08130DF
:1017600049F0823039F08C3010F0803128F006C01A
:10177000BED004C07FD002C0A5D02AC0E894C6E481
:10178000D3E0AAE5B3E0E2E6F3E0DAD0803879F01E
:10179000803079F0833079F0873079F0883010F03C
:1017A0008C3068F0803410F0863458F011C09FD02F
:1017B0000FC05BD008C063D006C072D004C077D021
:1017C00002C08FD000C026F0C83583E0D807E8F209
:1017D000E0E08091340309D080933403E2E080910B
:1017E000380303D080933803B0C181FF15C0F0E007
:1017F000E05AFC4FC191C7FD1CC0D0E0C85ADC4F75
:1018000038813E3109F4806C3D3109F48868E23654
:1018100081F0E83679F70DC0F0E0E259FC4F008026
:1018200010906A030114018010906B03010409F009
:1018300084600895E991F0E0E051F44E84918F8B3B
:10184000603091F06A95082E982F907C8295837075
:10185000892B8D93802D869586958370892B8D930A
:10186000802D8370892B8D9308954AD043D074D0F6
:101870008D93089545D03ED06FD08D93089590916B
:101880002103923039F03ED035D060D08D9364D0B2
:101890008D93089535D086E12DD05ED08D93089537
:1018A00031D028D059D08D9351D08D9308952CD01C
:1018B00021D052D08D9350D08D934ED08D934CD05B
:1018C0008D93089523D016D03BD08D9345D08D9322
:1018D00043D08D9341D08D933FD08D933DD08D9348
:1018E000089521972DD08F71806104D00895689458
:1018F0008EE100C08C938A2F8855819311960895AC
:1019000094E007C097E005C090E103C096E16894B9
:1019100001C0E8940E0116F0C63449F0C83539F01C
:1019200039913F3421F028F49A95A9F707C08DE149
:1019300001C08EE16894DEDF3F913F91E0010895A0
:101940008991880F880F099080290895F9DF880F01
:10195000880F099080290895F9DF880F880F099072
:1019600080290895E82FF0E0E05AFC4FE081E7FD80
:1019700005C0F0E0E85AFC4FE0810895EFE10895DA
:1019800081E009C082E007C083E005C084E003C0B5
:1019900085E001C086E007D021F4E80FFD1DE0815D
:1019A0000895EE270895E091DC03F0E0E05AFC4F43
:1019B000E081EE232AF0E7FBF0E0E85AFC4F1894B0
:1019C0000895D092DC030895E2E0E093DC030895EB
:1019D000F8DF0FC0FDDFEC3018F0E03108F40895B7
:1019E000F3DF07C0E091DC03E395E093DC03E8302C
:1019F0000895E091DC03B7DF0895E0E001C0E2E084
:101A0000E093DC03F6DF0BD0EDDFE23039F0E830B5
:101A100029F0C9DF19F40E940705F4CF0895EF718A
:101A2000F0E0EC5EF24F099428C02EC034C01CC018
:101A30001BC01AC019C036C03EC03DC03CC03BC030
:101A400013C045C011C043C053C057C05BC00CC0D9
:101A50000BC00AC05CC008C007C006C005C004C0F7
:101A600003C05CC061C00895E6E7FAE163D0C1DF5E
:101A70008E2F0C94120549440000E0E8FAE15AC0A8
:101A8000504F4D28A33B2900EEE8FAE153C04842ED
:101A900028A33B290000ECE9FAE14CC04C4228A302
:101AA0003B290000EAEAFAE145C044594E28A33C2C
:101AB0007CA33B290000ECEBFAE13CC078504F4D91
:101AC00028A33B7CA33C7CA33D7CA33E290091DF63
:101AD000E093F803EAEDFAE12DC049448E03F828BB
:101AE000A33B7CA33C7CA33DA33EA33FA340290092
:101AF000E6EFFAE11FC041433100E0E0FBE11AC02C
:101B000041433200EAE0FBE115C04E434B00E4E103
:101B1000FBE110C05A535028A33B2900E2E2FBE14D
:101B200009C05452554E4300EEE2FBE103C045525A
:101B3000524F52006091CC017091CD010E94470537
:101B40006093CC017093CD010895A091DB03A07E3A
:101B5000B0913403B1FDA06131D0B0911703B4FD51
:101B6000A093DB0379F0E0913403E7FD0BC0E1FFC4
:101B700024C030915803E0915903313031F03230B4
:101B800059F01BC0D092D80318C0EF73F091D9035D
:101B9000E093D903B0E105C0F091DA03E093DA03F2
:101BA000B1E0A32BA093DB03FE13ECCFE091D803AD
:101BB000EB0F18F015F0E093D8030895EA2FE295A3
:101BC000EF70F0E0E053F44EE491AF71AE2B089566
:101BD00000200040006000E000E080E0A0E0C0E005
:101BE0008091D80380959091D9038091DA0308956C
:101BF0008080808080808080808080808080804025
:101C00008080808080808033808080348035368002
:101C1000808080808080803A8080803B803C3780DC
:101C20008080803F803D3880803E39804280808047
:101C3000808080808080802480808023802221801A
:101C40008080801F801E2080801D1C801B808080E3
:101C50008080801980181A808017168015808080F7
:101C600080251480138080803280808080808080F6
:101C700080808080808080438080800E800D0C80FA
:101C80008080800A80090B80800807800680808021
:101C90008080800480030580800201800080808035
:101CA000800F1080118080801280808080808080F2
:101CB00080808044802B3080802A2F8031808080FB
:101CC00080292E802D8080802C8080808080808064
:101CD000804528802780808026808080808080804A
:101CE0004180808080808080808080808080808033
:101CF0003091A100316C3093A100E1E8E3BDE091A7
:101D00008400F0918500F093A500E093A400D3BC7B
:101D10000895CFB64F014091A6005091A70040937F
:101D2000D6035093D703E0917200EF7DE0937200E9
:101D3000E091AD03F9E009944091A1004F7B4093FD
:101D4000A100E093AC03B29A40916F004B7D50FD2F
:101D5000446040936F00F093AD03409172004F7D5B
:101D600051FD40624093720040E249BBE6EAE093D5
:101D7000AE0340916900436040936900E89AF40122
:101D8000CFBE1895D0921D03D0922103D092290383
:101D9000D0922D03E091A100E064E093A100E091D6
:101DA000A600F091A700E0936803F0936903E09127
:101DB0006A03F0916B03E0936C03F0936D03E0937F
:101DC0006E03F0936F03E0937003F0937103E0935D
:101DD0007203F0937303E0EAF1EA98CA52E1E091EA
:101DE000A600F091A70040916803E41740916903B1
:101DF000F40731F45A9599F7E091A400F091A50009
:101E00003497E0936C03F0936D034091A0035091DD
:101E1000A10340936A0350936B0340936E03509366
:101E20006F03409370035093710340937203509378
:101E30007303E0E1FBE04E0F5F1F50938B00409374
:101E40008A00ECE1E093C6030061D092C100E8E9AA
:101E5000E093C100E3EAF2EA57E06ECF4B9B0064E7
:101E6000E091D603F091D7033097E0936E03F0939F
:101E70006F0340E455E04E0F5F1F50938B0040937B
:101E80008A00E3EA55E058CFECE4FCE140916A03B4
:101E900050916B034E0F5F1F50938B0040938A004D
:101EA000E5EAF4EA57E048CF4B9B0068E091D6039F
:101EB000F091D703E0937003F0937103E0E2E093B5
:101EC000C603E8E9E093C10054E036CFE091720028
:101ED000EF7DE0937200D092C10054E02DCFE091ED
:101EE0007200EF7DE09372004091A6005091A70030
:101EF000409372035093730311E0F0918100F6FD5B
:101F0000BFCA4093A0035093A103E091A403F091B2
:101F1000A5034E0F5F1F50938B0040938A00D09211
:101F2000C100E898E0EAE5C9ACD000D23091F003F6
:101F3000313019F0323070F421C032E03093EF03C9
:101F4000A881AA95A370A0930E03EBE0F3E00E9492
:101F5000410114C033E03093EF03A881AA95A37028
:101F6000A0930E03EBE0F3E00E94330131F7A09160
:101F70000E03A23041F0A33031F000C0A0E8A093DE
:101F8000B80390C00895FACF0E94FA00A0FF04C0E1
:101F900004D0BEEF0E94FD0002C080E002C081E0DC
:101FA00000C08093E103E2EAF6E2E093DD03F09300
:101FB000DE031BD0E091DD03F091DE033A9604903E
:101FC000002099F7089582E002C083E000C0B39535
:101FD0008093E103E2EAF6E204900B1629F03A96C8
:101FE00004900020D1F7089500C03196B591C591B5
:101FF000AC1708F4AC2FC591CA1708F4AC2FC591E3
:10200000D591C093DF03D093E003C591D59105909E
:102010001590F0010090E103E00DFD1D099405C04D
:102020000BC012C017C0AA270895E091DF03F091FA
:10203000E003AB2F0C948A01E091DF03F091E00301
:102040000E949E01A8830895E091DF03F091E003D0
:102050000C949E01E091DF03F091E003A8830C94BF
:102060008A01E1CFE0CF01C0DECFAB2F0895DBCFF7
:10207000DACF01C0D8CFAC2F0E940002A02D089566
:1020800008C0E8EFF3E030E1099001923A95E1F7FA
:102090006097D092F203D092F4030895E2E0E093C7
:1020A000F1030895E1E0E093F1030895D092F10384
:1020B00009D0E091F103E0FFD092EF03E1FFD0926D
:1020C000EE030895E6DFC091EF03C093F003C0E094
:1020D000C093EF030E9448098991E0911703EF70C4
:1020E000F0E0EC58FF4E09940FC032C00EC00EC095
:1020F0000DC00CC0F9C0F8C02BC029C0DAC0E0C0C8
:10210000F3C0F2C0F1C0F0C013C10ECF2196B9DF09
:102110002197E991E85EF0E0E157FF4E0994E4C0B1
:10212000E3C0E2C0E1C0E0C0DFC0DEC0DDC0DCC0B3
:10213000DBC0DAC0D9C0D8C0D7C0D6C0D5C0D4C0E3
:10214000D3C0D2C0D1C0D0C099C09DC0AEC021966E
:10215000219697DFE0911A03ED11EE13BAC0E881E2
:10216000E295EF70F0E0EA54FF4E09940FC024C0EE
:1021700039C038C0B3C1B2C1B1C1B0C1DBC1DAC16D
:10218000F2C1E4C155C054C0A8C0AAC0E991EF7023
:10219000F0E0E453FF4E0994C1C0C6C0A3C0A2C082
:1021A000A3C0A2C0A1C0A0C09FC09EC008950895B2
:1021B0009BC09AC099C08FC0E991EF70F0E0EE51DA
:1021C000FF4E099491C090C093C092C08DC08CC046
:1021D0008BC08AC089C088C087C086C085C084C0C3
:1021E00083C082C0E991EF71F0E0E850FF4E09949E
:1021F0007BC07AC079C078C077C076C075C074C023
:1022000073C072C071C070C06FC06EC06DC06CC052
:102210006BC06AC069C068C067C066C065C064C082
:1022200063C062C061C060C074C1A8C05DC065C148
:10223000E991EF71F0E0E25EFE4E0994E8C0F8C06B
:10224000F5C052C051C050C04FC04EC04DC04CC070
:102250004BC04AC049C048C047C046C045C044C042
:1022600043C042C041C040C03FC03EC08EC190C1CB
:1022700092C194C196C1BEC080C183C1E881E03FD4
:1022800008F092C131C0E881E03009F43FC0E1308C
:1022900009F43EC0EC3F08F031C0E07FE03D09F4B6
:1022A00039C0E03E09F430C01FC0E881ED1134C0F0
:1022B0001DC0E981E7FF5EC0833009F44BC047CF02
:1022C000E981E3FD59C0843009F44FC040CFE0E01C
:1022D000A4C1EFE3A2C1EAE2A0C1E0DE51D00895BB
:1022E000DDDE0895E1E299C1EDE197C1E7E195C135
:1022F000E881E170E093F803ECE28FC1E881E370DC
:10230000E093F803E9E289C1E5E287C1E6E285C12D
:10231000E7E283C1E8E281C1E4E27FC1C3DEA1E07C
:10232000A093EF03E8E179C1E9E177C1EAE175C182
:10233000E0914401F0914501E093BE03F093BF03A7
:10234000E0914201F0914301E093C003F093C10397
:10235000ECE163C1E981E3FBE170E093F803EE2770
:10236000E0F9E093F903EFE158C1EA81E093F80363
:10237000E0E253C1E2E251C1E3E24FC1EBE24DC101
:1023800038813C70343029F03830B9F03C3059F0A5
:102390009ECF30911A03343009F1E881E370E09365
:1023A000F803E3E13AC130911A033530E8F4E881EB
:1023B000E370E093F803E4E130C1E881E370E09377
:1023C000F803FA81E1E0F3FFE0E0E093FB03EDE3E3
:1023D000F4FFEEE3F770F093FA031FC1E881E370B6
:1023E000E093F803E5E119C1E881E370E093F803B5
:1023F000E6E113C1E881FF27EE0FFF1FE695F0939A
:10240000F803E093F903D092FA03EEE006C1E88105
:10241000FF27EE0FFF1FF093F803F981F695E7957C
:10242000E093F903F093FA03EFE0F7C0E0E1F5C0C1
:10243000FE01E07F3081363019F0373089F147CF27
:10244000E881E07C19F0E034C9F041CFE981EF7117
:10245000E093F803E881EF73E093F903E981E07E0C
:10246000E295E695E093FA03EA81F0E0E7FDF1E01A
:10247000E093FB03F093FC03E1E1CFC0E881EF714F
:10248000E093F803E981E07FE295E093F903EA81C4
:10249000EF70E093FB03EB81E093FA03E2E1BDC050
:1024A000E88108D0E98106D0EA8104D0EB8102D02E
:1024B000EBE1B3C0FE2FEF73F7FF05C0F6FF08C0D6
:1024C000E093FB030895F6FF06C0E093FA03089536
:1024D000E093F8030895E093F9030895E881E4FB9D
:1024E000EE0FE0F9E6FBEF71E093F603EE27E0F97B
:1024F000E093F703E1E0F1E091C0E881E7FBEF77DB
:10250000E093F603EE27E0F9E093F703E2E0F1E071
:1025100085C0E881E7FBEF77E093F603EE27E0F96B
:10252000E093F703E0911A03E250E093F903E3E04C
:10253000F1E874C0E881E4FBEE0FE0F9EF71E0939D
:10254000F803E093F903E4E0F2E068C0E881EF709B
:10255000E093F903E3FBE295EE0FE0F9E093F80373
:10256000E5E0F4E05BC0E881EF70E093F903EE0F83
:10257000E093F803E6E0F8E051C045D0E7E0F0E191
:102580004DC041D0E8E0F0E249C03DD0E9E045C0AF
:102590003AD0EAE042C037D0EBE03FC034D0ECE0C4
:1025A0003CC031D0EDE039C0EF70F0E0E752FD4EB5
:1025B00009940FC010C011C012C096CE95CE94CE13
:1025C00010C011C012C013C014C015C016C017C06F
:1025D00018C0EDE222C0EEE220C0EFE21EC0E0E350
:1025E0001CC0E4E31AC0E5E318C0E6E316C0E7E365
:1025F00014C0E8E312C0E9E310C0EAE30EC0EBE365
:102600000CC0ECE30AC0E881E093F903E295E7FB34
:10261000EE0FE0F9E093F8030895F0E0E093F203A1
:10262000F093F40308950E94C40F0E94A4080E942E
:1026300014090C9440100C94C20F11C008950C940E
:10264000E90AD09217030E94780B0E944809D882A9
:1026500008950E94AB080E9456100C94540BA09150
:102660001104A2FF09C0A0910804A0FF0895A09141
:10267000B903A63908F406C0D0920A03D092B90370
:102680000C943F09A0910A03AA95A0930A03089508
:10269000E89401C068940090080404F800920804CB
:1026A00008950109017F06000B040F10070100FFC8
:1026B000000000003110080D00FF00000000D413DE
:1026C00011C0C0E707000E040F10128000FF0800C1
:1026D0000F040F101C0300FF090010040F101D0E43
:1026E00000FF0A0011040F10331300FF0B00120447
:1026F0000F10341300FF0C0013040F10350200FFFD
:102700000D0014040F10361900FF0E0015040F10F1
:10271000370100FF0F0016040F10380500FF1000EE
:1027200017040F10390A00FF110018040F103A0A9D
:1027300000FF120019040F103B0A00FF13001A04D7
:102740000F103C0A00FF14001B040F103D0A00FF8D
:1027500015001C040F103E0A00FF16001D040F1088
:102760003F0A00FF17001E040F10404000FF180032
:102770001F040F10414000FF190020040F104200F9
:1027800000FF1A0021040F10430000FF1B00220469
:102790000F10FB0000FF1C0023040F10FC0000FFC3
:1027A0001D0024040F1000003ECC3DCC5ECC00C0C8
:1027B000A03019F0A83019F008950C94F000B1E0A1
:1027C0000C94000132CC38CC3FCC00C043CCEDEDB2
:1027D000F8E00CD0E3EEF8E009C0F894D0921203D0
:1027E000D0921303D092140378940895D082D182AA
:1027F0003FEF328333830895D092D40800906A0368
:1028000010906B03ECE6F3E0C5EDD8E0A191B19137
:10281000A019B1091496B695A795B695A795B69542
:10282000A795B695A795A993B993CD3D79F7A091B2
:10283000D708B091D80880E090E082D0A03049F06D
:102840003091EA08A093EA083A1B08F431953093D6
:10285000E908A091D908B091DA0880EA90E070D038
:10286000A03049F03091EC08A093EC083A1B08F432
:1028700031953093EB08E0913403E1FF13C0EDEDA7
:10288000F8E0A091D708B091D80846D0E091D408DC
:10289000A035BD0508F4E460A236BD0508F0E86087
:1028A000E093D408E0913803E1FF13C0E3EEF8E0D1
:1028B000A091D908B091DA082FD0E091D408A13CBA
:1028C000BD0508F4E064A73DBD0508F0E068E093AD
:1028D000D408E0911703E03009F00895D092D408AD
:1028E000D0921D03D0922103D0923403D0923503AD
:1028F000D0923803D0923903CFEFD0E4C0931503C0
:10290000D0931603D0921703D092B603C5EDD8E04A
:10291000D992CD3DE9F708950D01102881F0A483E7
:10292000B583008011800A160B0610F4A083B183D2
:1029300002801380A015B10510F4A283B38308951B
:102940000D01A81BB90B08F4A1E0BB2309F0AEEF01
:10295000102809F4A0E00895F4D122D0F5D1E9F7C8
:1029600008950E94ED13EDD106D0EED1E9F7089558
:10297000BFE7A883B9830E0125963BE0D9923A952B
:10298000E9F7E001BFC1DDD103D0DED1E9F7089559
:102990000E01289638E0D9923A95E9F7E0019CC1FA
:1029A000A6C142D0DFEFA091D803AF3F29F4B09188
:1029B000D903A091DA03E7D1C0935404D09355040E
:1029C000E1D1C0935204D0935304EC81E395EC839E
:1029D000ED81FE813196ED83FE83EF81ED1DEF8366
:1029E000AB81B091DB03B295A07FBF70009017035D
:1029F00004FEB17FAB2BAF7EB0913803B1FDA06177
:102A00000E94DE0DAB836091D40838D0F09138037A
:102A10005AD031D0F091340356D06093D4087DC1A0
:102A20003FEF38873B870895ACECB8E0DD92A43DDA
:102A3000E9F787E00E94B20C0E94BE01ACECB8E05E
:102A4000823008F01496AF0FBD1D0C900E2A0C9228
:102A50008A9582F70895EC81ED110AC0EA81E33C82
:102A600008F4E2ECE395E43C10F0A7E7AB83ED114A
:102A7000EA83DC820895FFD1EB8103C0FCD1EB81B6
:102A8000E295EF70E257F0E0F54DE49108952020D3
:102A90002055205520554D204D204D202020EBD194
:102AA0003C81303029F43A81343C10F00894089588
:102AB00088940895E0D10E94F00D21F408801980D7
:102AC000081619060895E032E0E009F0E160F1FD32
:102AD000E260F0911703F3FDE460F0E0E651F54D9C
:102AE000E49162956C7F6E2B089500020101000253
:102AF0000001089508950895089592CF91CFABCF26
:102B000008C008950895A7CF08958ACF89CF5FD0D0
:102B1000A2CFF091D408EE85F2FDE06CF3FDE06306
:102B2000EE87A0913803A1FF1CC0F091D408F87083
:102B3000C1F4FE013B963181A091D908B091DA0829
:102B400080EA90E025D0BF8537D0A091D408A6FDBB
:102B5000B06CA7FDB063A0911B03B77FA7FDB86061
:102B6000BF87A0913403A1FF12C00E94F00D79F439
:102B7000DC0109D1FE0138963181A091D708B091CE
:102B8000D80880E090E004D0BE8516D0BE870895B6
:102B90000D01102881F0A81BB90B08F4A1E0BB239C
:102BA00009F0AEEFA1830080A01508F4A083028095
:102BB000A01508F0A28308953A1B08F431953695C4
:102BC000383008F037E03770B87FB32B0895BE85F2
:102BD000B4FFB5FDB051B6FFB7FDB054BE87BF8599
:102BE000B4FFB5FDB051B6FFB7FDB054BF8708952F
:102BF0000895089530CFE090F40309840E280986E3
:102C00000A840E280A86E0FC0BD0E1FC0ED0E2FC20
:102C10000ED0E3FC10D0E4FC10D0E5FC12D00895F7
:102C20000E94A42428D1E8870895E0E00EC0E2E0E5
:102C30000CD0E4E00AC0E6E008C0E8E006D0EAE034
:102C400004C0ECE002D0EEE000C0E459F0E0F34D47
:102C500012D11590C10DDD1D1590A091F803A12191
:102C60001094088001200A2A088208950B1F0BE0A7
:102C70000C010C1E0CE00D1F0DE00E1F08950895B1
:102C8000EACEFCDEE53521F4A885A395AD11A88731
:102C9000ED3421F4A985A395AD11A987C09138031E
:102CA000C7FF05C0E8D0AA85A395AD11AA87E3D0D8
:102CB0002B96ECECF8E01480019001281880012894
:102CC0000992EF3CC1F7089508950895C4CE089580
:102CD0000895089508950895EFE6F6E129C00ACF12
:102CE0000DCF10CF13CF85CFCACFEFCFF2CFEAE70A
:102CF000F6E11EC000CF03CF06CF09CF7BCFC0CFF8
:102D0000E5CFE8CFE5E8F6E113C0F3CEF6CEF9CE95
:102D1000FCCE6ECFB3CFD8CFDBCFE0E9F6E108C071
:102D2000EBCEEECEF1CEF5CE66CFABCFD0CFD3CFBC
:102D3000309127043770E30FFD1D0994D092D8031A
:102D400008C0C6E5D4E008956096C63809F4D830C6
:102D50000895F7DFD09287080BDE6096A1E0A0937C
:102D6000880806DE6096A2E0A093890801DE6096DE
:102D7000BFEFFFDDE9DFE1F7CAE8D8E0D992CA3C4E
:102D8000E9F7089583D0E6ECF6E147C018C01AC011
:102D90001CC000C0C6E8D4E00880198017FC0BC036
:102DA0000A161B0629F0609633953334A8F307C042
:102DB00030935104089530935104DBDD37C0C6E5EC
:102DC000D4E0F6CFC6E6D4E0F3CFC6E7D4E0F0CF48
:102DD0005DD0ECEEF6E121C018C019C01AC000C0E9
:102DE000EAE8F8E090E18191899FE001CA5ADB4F5F
:102DF000088019800A161B0619F0EA3CA1F705C0E5
:102E000080935104E858CE2F0895C0E003C0C1E07C
:102E100001C0C2E0C093510408953B2F331F331FFC
:102E2000331F3A953370E30FFD1D0994BE01EAE8A4
:102E3000F8E090E18081803071F0899FE001CA5A0A
:102E4000DB4F08801980A015B10528F061F031969C
:102E5000EA3C81F708C09091510480819193982FAA
:102E60009030D9F7D082EB010895D0E1CD9FE001F9
:102E7000CA5ADB4F0895C0915204D091530408956B
:102E8000F4DFC0935204D09353040895B091160315
:102E9000A0912A04A074B7FFBA27A0911503B03CF3
:102EA00009F4AF3F09F4B0E4089530912704377076
:102EB000E30FFD1D09940895EFE5F7E1F6CFFBCF91
:102EC000FACF05C004C003C002C001C0F4CF0E9405
:102ED0003B1785E2AC81A13020F4AA81A43C08F024
:102EE0008AE530C2E5E7F7E1E0CFE5CFE4CF05C002
:102EF00004C003C002C001C0DECF0E945A15E0E04A
:102F000009F4E1600E944F1508F0E460AB81A7FD71
:102F1000E260E25EF0E0F04D849191E315C25A2147
:102F20001F1F615D5C5FE6E9F7E1BFCFC4CFC3CF90
:102F30001BC01AC019C018C017C0BDCFE09117033D
:102F4000EF70EE0FE05BF0E0F04D95918491FCC1E5
:102F50003127315B3127315B31243123651E651EFA
:102F6000315A312531223122E091F203EE0FE65839
:102F7000F0E0F04D95918491E7C12961315A315AC1
:102F8000315A312431243124312431243124312463
:102F900031243124312431213121316131613161D8
:102FA000315C315F315C315F31612B1E2B1E671E3E
:102FB0003161315E29613161312231222B1E312292
:102FC00031223161681E2C612C612C612C61315AD7
:102FD000312431612D612D612D612D612D612D61B6
:102FE0002D612D612D612D612D612D612D612D6171
:102FF0002D612D61315F31213122E0E0F8E155CFC3
:103000005ACF59CF05C008C015C014C013C053CF44
:10301000309118030C94B706E0911703EF70F0E0BD
:10302000E85DFF4C349176C17E62736961723F3F07
:1030300037343131E091F203F0E0EE5BFF4C349134
:1030400069C14573532466666666664646464646CB
:1030500062425443445050585869524856632D7246
:103060002A6141404E4E593A3A3A3A3A5E7E3D2301
:1030700023232323232323232323232323232350F3
:10308000504E2020202020202020E8E4F8E10DCF21
:1030900012CF11CF05C00BC003C01BC01AC00BCF8D
:1030A000CED0DBD0A0913403A7FD9BE54DC18AE5CE
:1030B00091E3E091E908E170ED1181E6E0913403DC
:1030C000E2FD98E6E091D408E2FD97E6E3FD95E69F
:1030D0003BC1B5D0C2D038C1EFE6F8E1E6CEEBCEC9
:1030E000EACE05C00CC01AC019C018C0E4CEA09129
:1030F000340330EFA1FD30913503305D0BC1C09139
:103100003403C1FF01C1E091E908E695E83008F019
:10311000E7E0E452F0E0FE4C3491FCC00E94E80C81
:10312000F0E0E65DFE4C3491F5C020484C202020B4
:103130002020202020202B2B2B2B20202020202063
:1031400020202020202020544520E8EAF8E1ADCEC0
:10315000B2CEB1CE05C00BC003C01CC01BC0ABCEED
:1031600071D092D0A0913803A7FD9BE5EDC08AE510
:1031700091E30E943B17EF85E270ED1181E6E0914B
:103180003803E2FD98E6E091D408E6FD97E6E7FD16
:1031900095E6DAC057D078D0D7C0E0EDF8E185CE1B
:1031A0008ACE89CE05C00CC01DC01CC01BC083CEFA
:1031B000A091380330EFA1FD30913903305DAAC0F2
:1031C000C0913803C1FFA0C00E943B17EF85E77094
:1031D000E695E452F0E0FE4C34919CC02E2E4C4C0F
:1031E0004D4D48480E94EA0CF0E0EE50FE4C349100
:1031F00091C050484C3334353644585858582B2BCE
:103200002B2B41614E5252525A3F3F3F3F3F3F2688
:103210004520E0E2F2E38091D5089091D60859C0AC
:103220001A002121005B5A00E6E3F2E38091DB08FB
:103230009091DC084EC0C60121E9015B5A00E09183
:10324000D40803C0E091D408E295E370F0E0EA5AB4
:10325000FD4C84910895316765680E94E80CF0E0A8
:10326000E859FD4C949108955B255A5B5B5B5B5B71
:103270005B5B5B5B5F5F5F5F5B5B5B5B5B5B5B5B8E
:103280005B5B5B5B5B5B5B5B0E94EA0CF0E0EA56BE
:10329000FD4C949108955C255A5E5B5B5B245C5CFD
:1032A0005C5C23232323255A1F5B5B5B605B5B5BBA
:1032B0005B5B5B5B5B5BECEBF2E30BC050002162A2
:1032C000005B5A00EAECF2E304C0C10021D7005BC6
:1032D0005A000C01012861F00590801505909005B9
:1032E00040F03196059080150590900510F43597C3
:1032F0003696849108958AE591E326C081E691E3AC
:1033000023C084E291E320C00C9407050C940605C9
:103310000C9405050C94E0060C94F2040C9416052C
:103320000C9418050C9425050C942E050C94380566
:103330000C9427050C942B050C9403050C943D0567
:103340000C943B170C94C1070C94AF070C94FB072B
:10335000FC01A5910E94F904CF01F2DFE3EBF9E152
:10336000EA0FFD1D0994F0C0F2C0F6C0E7CDFBC026
:1033700061CEFACD97C09EC0A4C0AAC0B0C037C16C
:1033800043C125C10CC127C114C1FDC02AC116C14A
:10339000FFC01FC109C1A6CD8FCD4DC154C141C1D0
:1033A00057C1ABC164C169C1B5C18FC198C199C1D1
:1033B000ACC1B8C1A5C172C177C1AEC189C195C147
:1033C00096C1A5C1B1C1B6C1B9C1BDC133CECCCDC5
:1033D000CDC1C3C14BC04BC093C09BC049C04BC003
:1033E0004DC04FC051C053C040C0EEE1F3E08191E9
:1033F000A5DFE032E1F788DFE2E2F3E081919EDFD2
:10340000E832E1F781DFE6E3F3E0819197DFE8332B
:10341000E1F77ADFEAE3F3E0819190DFE034E1F76E
:1034200073DFE0E4F3E081910E943D05E63409F4A6
:103430006BDFE835C1F768DFE8E5F3E081918F7174
:103440000E943D05EA35D1F75FDF81918F710E94BF
:103450003D05E036D1F758DFE0E6F3E081910E94C8
:103460003D05E836D9F750DF089544C51DC44DC465
:103470000E94C00C0EC00E94C20C0BC00E94C40C63
:1034800008C00E94C60C05C00E94C80C02C00E9461
:10349000CA0C8E2F53CF0E94F20452DFC80FDD1DDD
:1034A00088813ECF0E944809FE0120D030FD21C016
:1034B0000C94AF21EDE1F3E019D030FD1AC00C946B
:1034C000FD0CE1E2F3E012D030FD13C00C94FF0CD0
:1034D000E5E3F3E00BD030FD0CC00C94FD0CE9E308
:1034E000F3E004D030FD05C00C94FF0C30912A04A9
:1034F0000895A191AA951AF0819120DFFBCF08953C
:103500008091C0039091C1030E942E053EE202DF2C
:1035100000C08091BE039091BF030ACF80914A0101
:10352000FFCE80914B0190914C01FECE80916E01B7
:10353000F7CE80914D0190914E01F4CE8091D30150
:10354000EFCE0E940A09F0CE8091C403E9CE8091AB
:10355000B6039091B703E6CE8091120390911303C6
:1035600060911403E3CE80911703823011F0803014
:1035700009F4E2CE809115039091160396FD97FF12
:1035800097709F73D1CE8091E9089091340304C065
:103590008091EB089091380391FFB8CEBFCE809117
:1035A000D5089091D6080EC08091DB089091DC0878
:1035B00009C08091D7089091D80804C08091D9089B
:1035C0009091DA080C0101280D10ACCEA1CE21DEBD
:1035D000B9CE2ADEB7CE8091D7089091D8086BDE9D
:1035E000B1CE8091D9089091DA086CDEABCE27DE9F
:1035F0009AE53091340333FD9DE536FD9BE535FDBD
:1036000091E232FD8CE2A0CE1DDE9AE530913803C6
:1036100033FD9DE536FD9BE535FD91E232FD8CE203
:1036200093CE80914B04833108F008959091490422
:103630008395890F73CE80914B04833108F00895F0
:103640008881998177CE0E94F00D09F075CE6CCEFD
:103650008A81835C08F488278C3319F457DE34E5BB
:1036600059CE5ECE0E944F1508F008956FCE0E948D
:103670005A158AE509F481E665CE81E30880198050
:10368000A0911503B09116030A161B0631F4309170
:10369000D40832FD8BE233FD85E654CE81E691E31A
:1036A0003B8137FF8AE550CE81E308801980A091E5
:1036B0001503B09116030A161B0631F43091D40895
:1036C00036FD8BE237FD85E63DCE8885982F03C019
:1036D0008B85982F805690959D1122CE19CE898585
:1036E00001C08A858D111CCE13CE8C8501C08D85BD
:1036F000982F80569D1114CE0BCE8B81829501C0E0
:103700008B8134E587FD30E305CEEE8501C0EF8582
:10371000E7705FCD8E8501C08F85807C30E28D1192
:103720003CE3F8CD8E8501C08F85807330E28D112A
:103730003EE3F0CD8D819E816F81F8CD8A81833CFF
:1037400008F080E0EDCDE88532E5E7FD36E4E2DD26
:10375000E3DDF6DD88858F77E3CDFC01A5910E943E
:10376000F904EEDDCA0FDD1D8881E8CDA0914A0481
:10377000B0914B04B55F0C94A6076091EC0309C0AF
:103780006091ED0306C06091EA039091EB03690F2D
:103790006795862F82958F70680F08F46FEF6035FC
:1037A0008DE518F08BE5643B08F0CCDD862FB8CDB5
:1037B00060911B036F708BE26D11C4DD862FBECD4F
:1037C000E0911B0332E7E5FF36E6A4CD0E945A15CF
:1037D00041F4E0911B033BE2E6FF3DE2E09134035C
:1037E000E1FF30E297CDE0911B033BE2E7FF3DE2D2
:1037F000E0913803F5CFA4DDEF853BE2E3FF3DE246
:10380000EB81E7FF30E286CDE0E0E0932804089505
:10381000E2E004C0E4E002C0E8E000C00090290457
:103820000E2A009229040895E0912804F0E0E65E53
:10383000F34E099403C0EBC20FC33CC347D003D07F
:103840000ED019D024C031E0E7E2FCE12CC0B4C0B6
:10385000CDC03CC16FC19AC10BC25DC2089532E0B8
:10386000E3E3FCE120C0B9C0FBC051C164C18FC11A
:1038700000C252C2089534E0EFE3FCE114C0B4C0CA
:10388000F2C049C15CC187C1F8C14AC2089538E09D
:10389000EBE4FCE108C0A9C0E7C03EC151C17CC156
:1038A000EDC13FC20895032E10902904012030FF7E
:1038B00061F031FDD09225043095312130932904F7
:1038C00030912704E30FFD1D099408950E943D08DF
:1038D000309326040895309126043030B9F03297A1
:1038E0003296C591C03C30F43C17D1F7C591D591C3
:1038F000FE010994C0FD0BD0C1FD18D0C3FDBBD2A1
:10390000C2FD35C00C94F0040F900F900895393823
:1039100060F0303950F43958009027043093270470
:1039200030110E94C31423D0EFCF0895F0914904C1
:10393000FF5F323879F0F250313861F0FD5E363891
:1039400049F0F452353831F0FF27373819F0FEE2EC
:10395000383841F4F7FDF0E0FE3208F0FEE2F09373
:103960004904D2CF0895D0922904E2E04ECF50DF2F
:103970004BCFF0912A04FE27F0932A040895E1E04A
:10398000F8CFE2E0F6CFE4E0F4CFE0E4F2DF0C942D
:103990009E16E1E0E0932704F0912A04FB7FF1609A
:1039A000EBDF0E94DD07E3CFF0912A04F460FE7F95
:1039B000E3DF0E94D907DBCFEEEBF9E38CCF3FE9E1
:1039C0001C02ED0012F0000DF11C03C91C14D41CE4
:1039D000C100F9E4E6E9A0D304C0FAE4E2E49CD330
:1039E00000C0FAE4E6E398C308950895E2EFF9E32E
:1039F00072CF3F2C1D20B31C74BF1C68431D63B1E4
:103A00001446691F66C11C72081C70D20776C31C5D
:103A100003C91C14D41CC100EEE1FAE35CCF03C956
:103A20001C14D41CC500ECE2FAE355CF3F2C1D203A
:103A3000041C68431D46691F03C91C14D41C66C1BD
:103A40001CC10000EAE4FAE346CF0DB71C20A61F14
:103A500003C91C14D41CC800E9D175E566EBF7C195
:103A6000FAE4E6E759C3089586D2E0912A04E3F91F
:103A7000E0932A04E1FF04C0E3FD02C0E2FF0895E1
:103A8000FAE4E2EE49C3FAE4E4E846C3E4EBFAE31D
:103A900080912A0481FD34960E94430583FF09C06A
:103AA000F8945D9A06D005D05D98789438EF3093FD
:103AB00040010895504B540046494C00E0912A04BF
:103AC000E1FDE3FD0C94EA040C94EE04E2EDFAE36C
:103AD00002CF3F831D20B31C63B114649E1674BFD4
:103AE0001C72081C70D20761C51C03C91C14D41CAD
:103AF000C300E8EFFAE3EFCE03C91C14D41C3F2C3B
:103B00001D20041CC10092D177E560E0A0C1D5D38F
:103B1000FBE4EAE701C3D4C3A1D357D320F006D313
:103B2000FCE4ECEDF9D25FD320F000D3FCE4ECEF41
:103B3000F3C20895CBCFC1D3FDE4EAE2EDC2C0C326
:103B40008DD343D360F0C0934D04F0D2FFE4E2E2A2
:103B5000E3D230E330934A04FFE4EEE3DDD243D313
:103B600050F0C0914F04D0914E04DC1721F0DED20A
:103B7000FFE4EEE3D1D2E091D803EF3F31F443D339
:103B800020F0D4D2FFE4E2E9C7D208959FCF95D3C5
:103B9000FFE4E0EBC1C294C361D317D320F0C6D2D7
:103BA000F1E5E2E2B9D21FD350F0C0914F04D091B9
:103BB0004E04DC1721F0BAD2F1E5E2E4ADC208957B
:103BC00003D0BEDBD9860895BBDBE985E17045D023
:103BD000B7DB46D0A5D2E4E3FCE360E305900D1427
:103BE000D1F0AEDB1984A591CA0FDD1DB88101208B
:103BF00034D0059000FCB29501FCB695A591362F06
:103C0000B0FF3DE28BD2B69563956A3308F060E36E
:103C1000AA95A9F7E3CF84D293DB8A858F7380645A
:103C200006C030E208F438E579D278D27BD28695A6
:103C3000C1F70895020B0005040B0303040C0001F7
:103C4000080C0204100C0303100D0005200D0303E3
:103C5000200E0005400E0303000009F052CB4BCBB1
:103C6000888532E587FD36E459D25AD28F775CC217
:103C70002DCF23D3F1E5ECE44FC222C3EFD2A5D27E
:103C800038F054D2EE85E160EE87F2E5E6EE44D2FC
:103C9000AAD248F0C0914F0449D23EE230934A0480
:103CA000F3E5E8E039C2089588853ED239D248DB91
:103CB00089853AD235D244DB8A8536D231D21BDBB4
:103CC00060E03EDB7B8507D03BDB7C8504D028D2DF
:103CD00037DB7D8500C0089477953DE228F4E2EF5C
:103CE000FCE3E60FFD1D349119D263957695A9F793
:103CF0000895303132333435363738393031323354
:103D0000343541614E5252525A52EE85E0FF16C28E
:103D1000EE7FEE870895DACED0D2F3E5E4E2FCC17F
:103D2000CFC29CD252D220F001D2F5E5E0E2F4D12C
:103D30005AD220F0FBD1F5E5E0E4EEC108950E94EF
:103D40004F1510F4F5D102CBEBD1EAD1E9D1F0D186
:103D5000FE01AFE0BFE0C0850C2E0B2219F40E94DB
:103D6000050504C0DB2FD171CD1BC087D9D1B29519
:103D7000A0FF3196AA9579F708950E944F1508F48F
:103D8000DDC1F2D857D9CCD1A4D9C8D9C9D102DA6A
:103D900029DAB4DAD092DC030E94F90CE030A9F001
:103DA000E73021F0E63141F5EEE00FC00E94C20C91
:103DB00091E0E13059F0CE2FE0E0FEE3D591EE3016
:103DC000DC13E1F7E050EE30B9F090E0B1D10E2E07
:103DD0000694C00DDD1DFFE0E0FDF0EF08840F2A22
:103DE0000886EE0FEE0FE85CE0934A04BFDC0E9409
:103DF000C00C8E2F0E9425050E94F20C69F60895D2
:103E000000071A2E1B08090A0B0C0D0E0FFF5EDDB2
:103E100001D031CD31E0EEE0FFE145CDCDCDFCCD9F
:103E2000FBCDFACDF9CDF8CDF7CDF6CDD092290462
:103E3000E1E0EBDC48D2F5E5EAE46ED16AE1F5E5D4
:103E4000E6E76AD16A95D9F7F5E5ECE765C1F5E5EE
:103E5000ECE962D1FB0160C139DD01D00CCD31E06C
:103E6000E3E3FFE120CDA8CDDECD43CE42CE41CE6F
:103E700040CE3FCE3ECEF0912B04FF5F333879F039
:103E8000F250343861F0FB5F323849F0F850313885
:103E900031F0FF27373819F0F7ED383851F4F83F93
:103EA00008F0F852F83D08F0F85DF0932B041FD0AD
:103EB0002BCD08950BDD01D0DECC31E0E1E6FFE152
:103EC000F2CC7ACDBFCD02CE35CE60CED1CE23CFCF
:103ED0000895D0922904E3E098DCF5D1F8E5E8E90B
:103EE0001BD16AE1F8E5ECEC17D16A95D9F7F8E552
:103EF000E2ED12C1FC01659174E00E94F904E8E270
:103F0000FFE300902B04601511F016D002C017D00B
:103F1000389606D117D00D103496FED063957A9559
:103F200071F781E694E606C1202D2000205820007C
:103F30005B2D5D005B585D0085E294E6FBC08EE181
:103F40009BE2F8C0A62F08D00A22089503D00A26C3
:103F50000882CDCFA0912B04BA2FB37037E0B39F66
:103F6000C02DA695A6950E94CD01CB0FD0E0C45DD3
:103F7000DB4F088008958CE294E00DD05EF483E37B
:103F800094E009D03EF48AE394E005D01EF481E485
:103F900094E001D00895EC01688160FF19C0EAED5A
:103FA000FFE33496EC01059007FC14C0C00DDD1D45
:103FB000A591B881BA23A9F3C591D591A591059092
:103FC000B881AB1700FC39F0AB2301FC21F4EACF38
:103FD00061E003C0627061FD609560FB08950004BC
:103FE000F2031C01000817030201001017030F0160
:103FF0000020170318010040170319010080170360
:104000000A01010117030B01010217030101010459
:10401000170305010108170304010110150302012C
:1040200001201503140101401503C8010180F203AA
:1040300013010201F20314010202F203150102044A
:10404000F20316010208F20301010210F203020159
:104050000220F20303010240F20304010280F20392
:1040600005010301F20306010302F2030701030441
:10407000F20308010308F20309010310F2030E0121
:104080000320F2030F010340F2032C010380CD084B
:1040900010020401CD0820020402CD0840020404ED
:1040A000CD088002040834030202041034038002A5
:1040B0000420D40801020440D40802020480D40879
:1040C00004020501D40808020502380302020504AF
:1040D000380380020508D40810020510D408200215
:1040E0000520D40840020540D40880020580D0088D
:1040F00001020601D00808020602D0088002060468
:10410000D10801020608D10802020610D1080402F3
:104110000620D108080280000C9447050C94E006A4
:104120000C94F2040C9407050C9418050C94401799
:104130000C943B170C94AF070C9403080C94FB07EA
:10414000C0914804C395C63108F0CC27C0934804F9
:10415000C0934B040895E4E7F1E4D591CD1728F41A
:10416000EC0FFD1DC491C7FF11C0C1E0C0934C040A
:10417000C0E0089516030405060708090A0B0C0D94
:104180000E0F10111213148000010200C33080F0D2
:10419000E0914904CE0FC33438F4E7E8F8E0EC0FBF
:1041A000FD1DC081C03021F4C2E0C0934C04C0E0CA
:1041B0000895C35030F0D0914904CD1BC23110F0A6
:1041C000C0E0CA5EC0934B0408953EE030934A04B9
:1041D000D0924C04B5DFBFDFC0934D04C0934E04B2
:1041E000D0924F042BC030E330934A04D0924C0459
:1041F0000E94E816DEDFC0934B04ADDFC0934D0490
:10420000C0934F041BC038E330934A04D0924C044F
:10421000A091DA03B091D9030E94E916CADFC093D6
:104220004B0499DFC0934D04C0934F0430914C046C
:10423000303019F0313009F40894089530914C046D
:10424000303039F0313021F0F2E4E4E50E944705E6
:1042500008940895A4A3351B5B4B0000A09125048E
:10426000A395A23810F4AB3008F4ABE0A09325047A
:10427000B6E20E94A6070E9493170E94FD17D092F3
:104280000103D0920003E8EAF2E456DF0E944518E9
:104290000E946C18E8EAF2E44FDF0E94A5180E9421
:1042A000CD18E4EBF2E448CF1B5B6D7C1B5B421B3B
:1042B0005B3244001B5B6D7C0000FCE5EAE42CCF24
:1042C000FDE5E6EE29CFE0910603E0FF0895B6E0B4
:1042D0000E94A5076DE1F8E5E6EC1EDF6A95D9F7C7
:1042E0000895D0E80C942E04E2EBF3E082E390E032
:1042F0000E9438040E942113E2EBF3E082E390E095
:104300000E9438040E9429130E94FC130E94D114B9
:104310000E940C1C0E94141CEDCF5F98CCECC09343
:104320003F010E946707C0EFC0933F01D0E40E94A5
:104330002E040E94081C0E9428040E941F130E9441
:10434000A3080E94AC140E94B0040E940A1CF3CF80
:104350000C9447050C94E0060C943D0508950E94CA
:10436000F404E093ED08F093EE08E091F203EF53CC
:10437000F0E0FE4D0995E091ED08F091EE080C9407
:10438000F90485C098C1A1C1AAC1B8C1BAC1BCC154
:10439000BEC1C0C1C2C1C4C1C6C1C8C1CAC1D8C1E1
:1043A000E2C119C2EBC1FBC13CC142C163C16CC1D6
:1043B000E9C05DC063C081C0FFC116C273C021C027
:1043C000CCC0D7C02BC037C03EC04BC0F9C005C160
:1043D0000AC10FC1EAC01CC0DCC062C110C22DC23C
:1043E00039C243C24FC256C25DC264C269C275C2FD
:1043F0007DC283C289C291C29BC2A0C223C12EC109
:104400002AC0E8E0F4E4A4CF506F6C6C28290000C7
:10441000E6E1F4E49DCF41636B282900ECE2F4E48B
:1044200097DF0E944809FE0191919BC24661637427
:104430006F7279280000ECE3F4E48ACF4E6F70537A
:10444000544428290000ECE4F4E482CF4E6F704518
:10445000585428290000ECE5F4E47ACF4E494C2862
:104460002900E8E6F4E474CF535953282900E4E71F
:10447000F4E46ECF5245534554282900E2E8F4E4B1
:1044800067CF486172645245534554282900EEE9CC
:10449000F4E45EDF0E944809FE01919162C2457218
:1044A00072280000E4EBF4E453DF0E944809FE01A7
:1044B000919157C2527376280000F091F903F0935E
:1044C000EF08F091F803EF2FF370F093F008EC7F12
:1044D000E03719F1E43759F1EC37A1F1F091FA0323
:1044E000F770F093F108E6E0F5E432DFE4E1F5E49B
:1044F0009091FA0394FD33962BDF30E393FD31E383
:1045000029DF39E227CF5376632843569008EF2EF0
:104510008D08F1003F3D003A3D00E0E2F5E418CFA0
:104520005376632872657365727665642900E4E3E7
:10453000F5E40ECF5376632843569008EF3F3D8D48
:1045400003FA2900EAE4F5E403CF537663284356DF
:104550009008EF3A3D8D03FA2900E0E6F5E4F8CE45
:10456000416363535444289F03F83A3D9F03F9295C
:104570000000E8E7F5E4ECCE416363455854289F1A
:1045800003F82900EAE8F5E4E3CE49444C4528293C
:104590000000E8E9F5E4DCCE416E616C6F67289FAE
:1045A00003F93A3D9F03FA290000E0EBF5E4D0CE91
:1045B0004C452889B8247CA003F97C9F03FB290083
:1045C000E6ECF5E4C5CE4C41289E03F89F03F97C48
:1045D000A203FA7CA003FE290000E0EEF5E4B8CEC9
:1045E000475328290000ECEEF5E4B2CE47432829D2
:1045F0000000E8E0F6E4ACDEEAE1F6E430911A030C
:10460000383008F03296A4CE5345289E03F89F0315
:10461000F97CA203FA7C9F03FE0029007C9F03FF24
:104620002900E8E2F6E494CE524428A003F82900D9
:10463000E6E3F6E48DCE575228A003F83A3D9F03F7
:10464000FA290000EAE4F6E483CE575228A003F8E2
:104650002E629F03FA3A3D9F03FB2900E2E6F6E44F
:1046600077CE575228A003F82E629F03FA3F3D9F52
:1046700003FB2900EAE7F6E46BCE785244289E0358
:10468000F87CA103F9290000EEE8F6E461CE785742
:1046900052289E03F87CA103F93A3DA203FC2900AD
:1046A000E6EAF6E455CE436F6E7353289E03F87C1A
:1046B0008F03F9290000ECEBF6E44ACE5370645303
:1046C0002889AB247C8F03F62900E0EDF6E440CE88
:1046D0005370644C2889AB247C8F03F62900EEEEDE
:1046E000F6E436DEEAEFF3E09091F9033AC1534481
:1046F000462889AB247C8F03F67C0000E4E0F0E0E0
:104700001AC0E8E0F5E017C0E2E1F9E014C0E0E229
:10471000F3E111C0E8E2F1E20EC0E6E3F9E20BC01A
:10472000E4E4F7E308C0E2E5F5E405C0E0E6F3E51C
:1047300002C0E8E6F1E6E093EF08F093F008E4E465
:10474000F7E406CE464EA008EF289D03F9290000A5
:10475000E6E5F7E4FDCD42696E53288F03F93A3D53
:104760009E03F8290000ECE6F7E4F2CD42696E4CB6
:10477000289403F93A3D9E03F8290000E2E8F7E4A3
:10478000E7CD54696D6532288D03FA7C8E03F83AC3
:104790008E03F97C8D03FB7C8D03FC290000E4EA89
:1047A000F7E4D6CD4461746532288E03F92F8E0369
:1047B000F82F9003FA290000EEEBF7E4C9CD546915
:1047C0006D6531288D03FA7C8E03F83A8E03F97CEF
:1047D0008D03FB290000ECEDF7E4BACD5469636B5F
:1047E000283078A203F92900EEEEF7E4B1CD546940
:1047F0006D656F7574283E33306D73290000E0914C
:104800001A03E23041F0E43069F0E0E1F8E4A0CDD1
:10481000515028290000ECE1F8E49ACD5150289F2E
:1048200003F92900EAE2F8E493CD515028A003F9F6
:104830007C9F03FB7C9F03FC2900E0E4F8E488CD27
:10484000514428A003F97CA003FB7CA003FD7C9FBE
:1048500003FF2900EAE5F8E47BCD514628A003F9DF
:104860007CA003FB7CA003FD2900E0E7F8E470CD09
:10487000414428A203F97CA003FD7CA003FF7C9F98
:1048800004012900EAE8F8E463CD5442445F303083
:1048900034282900EAE9F8E45BCD5442445F303023
:1048A00035282900EAEAF8E453CD5442445F303019
:1048B00036282900EAEBF8E44BCD434D28290000C7
:1048C000E6ECF8E445CD4D4228A003F97C9F03FBBC
:1048D0007CA103FC7C9F03FF2900E0EEF8E438CDC7
:1048E0004D4328A003F97CA203FB2900E2EFF8E482
:1048F0002FCD4D5228A003F92900E0E0F9E428CD9E
:104900004D4328A003F92900EEE0F9E421CD4D45FF
:1049100028A003F97CA203FB2900E0E2F9E418CD0A
:104920004D4628A003F97C9F03FB7CA203FC2900D1
:10493000E6E3F9E40DCD524428290000E2E4F9E46D
:1049400007CD575228290000E091F703E0FBE091E2
:10495000F603E7F90895E091F70336E4E0FF32E566
:10496000F9CC9A951AF08191F7DCFBCF39E2F2CCC1
:10497000E091F803F3E0FE9FF001E657F64B359126
:10498000E9DC3591E7DC3591E5CC616C6C6C6F63EB
:104990006163636E6F77833FA880A85E6209456E8E
:1049A00074657220426F6F746C6F61646572A85E8B
:1049B0006309456E74657220434C49206D6F6465D0
:1049C000A85E720952657365742044504D80A85EDC
:1049D0007409456E746572205654313030206D6F05
:1049E0006465A846312D463709537769746368209A
:1049F00073637265656EA880A8734D746B436B70AA
:104A00003A099201612020920163A8734D746B539F
:104A1000746B493A098F0165A8734D746B53746BBD
:104A2000363A098F016CA8734D746B53746B373A27
:104A3000098F016DA800A844504D205B3F5D3E20CA
:104A40000000A41B5B3F3235681B5B324A1B5B31A5
:104A50003B31483BA83B2055554944205B815D8054
:104A6000A83B2044504D20205B433032463030304C
:104A7000315DA83B0000A41B5B324A1B5B3F323513
:104A80006CA70101A40D7479702C8B0473657123DC
:104A90002C20207365632E206D732C2020206D56F2
:104AA0002C65762C5E2C7072652C20616464722CEF
:104AB000692C6463638B172C5443532C5453312C4F
:104AC0005453322C5443452C4A312C4A322C702CEE
:104AD000502C6368312020202C6368328B140D0A1F
:104AE0000000A489461D2CA55AA302A42CA55AA3F4
:104AF00039A42CA55A89C31B3030A4802CA55A890F
:104B0000D81BA4802CA55A89E01BA4802CA55AA3ED
:104B100001A42CA303A304A42CA306A305A42CA3E3
:104B2000348384A307871AA42CA30EA30FA42CA359
:104B300010A311A42CA313A314A42CA316A317A48D
:104B40002CA55AA312A42CA55AA315A42CA55A89A6
:104B5000E91BA4802CA55A89F31BA4802CA30C84E8
:104B6000A3088706A4802C85A30D86A309871EA40D
:104B7000895E1D80A41B5B4B0000A7022D8B1EA726
:104B8000023C2A2A2A2046333A205061796C6F6110
:104B90006473202A2A2AA7070E8A0A202B208A2239
:104BA000202B208A3F80A7080E4465636F646572DE
:104BB0008B047C202A2A2A20444343202A2A2A8B39
:104BC000197C8B302A2A2A205061796C6F6164200D
:104BD0002A2A2A80A7090E2320207C2020616464D1
:104BE00072207C8B06636E742020312F732020612D
:104BF0006765207C8B05736571232020206D7320F1
:104C00007C2040204443438B187C204348318B0454
:104C10007C8B15434832A70A0E3D3D202B208A0588
:104C2000202B208A08208A04208A04202B208A082E
:104C3000208A04202B203D208A1A202B208A06203F
:104C40002B208A17A71D0E8A0A202B208A12202BC0
:104C5000208A0D202B208A1C202B208A06202B2026
:104C60008A17A71E0E6F76666C2F6F746865728048
:104C7000A71F0E62726F616463617374A7200E6474
:104C80006363612F64636372A7210E8A0A202B205D
:104C90008A22202B208A3F801B5B3367A709131BC6
:104CA000481B5B38431B481B5B3130431B481B5B75
:104CB00035431B481B5B36431B481B5B3130431B92
:104CC000481B5B36431B481B5B32431B481B5B3254
:104CD00039431B481B5B39431B480000A483A335A1
:104CE000A31CA31809A31A80A31909A3308009A340
:104CF000318009A31D800989321BA400A483A33538
:104D0000A30209A33A8009A33480A333A531A319D0
:104D100083800984A307871AA30C0984A308870941
:104D200085A30D86A3098720A400A7022D8B1EA7AB
:104D300002392A2A2A2046343A205261696C636F6C
:104D40006D2054696D696E67202A2A2AA7070E8A8A
:104D50000A202B208A12202B208A24202B208A2410
:104D6000A7080E4465636F6465728B047C202A2A51
:104D70002A20444343202A2A2A8B087C8B1A2A2A79
:104D80002A20434831202A2A2A207C8B1A2A2A2AC0
:104D900020434832202A2A2AA7090E2320207C20DB
:104DA0002061646472207C8B06636E742020312F36
:104DB000732020616765207C203C203E20206167B5
:104DC000652020706F6C20206A74722020206D692D
:104DD0006E2020747473312020206D6178207C2037
:104DE0003C203E20206167652020706F6C20206A87
:104DF00074722020206D696E20207474733220201C
:104E0000206D6178A70A0E3D3D202B208A05202BBE
:104E1000208A08208A04208A04202B203D203D205F
:104E20008A04208A04208A04208A05208A05208A90
:104E300005202B203D203D208A04208A04208A045E
:104E4000208A05208A05208A0580A71D0E8A0A204F
:104E50002B208A12202B208A24202B208A24A71E74
:104E60000E6F76666C2F6F7468657280A71F0E6276
:104E7000726F616463617374A7200E646363612F52
:104E800064636372A7210E8A0A202B208A12202BCA
:104E9000208A24202B208A241B5B3367A709131B3D
:104EA000481B5B38431B481B5B3130431B481B5B73
:104EB00035431B481B5B36431B481B5B32431B4877
:104EC0001B5B35431B481B5B35431B481B5B354352
:104ED0001B481B5B34431B481B5B36431B481B5B57
:104EE00036431B481B5B36431B481B5B32431B4846
:104EF0001B5B35431B481B5B35431B481B5B354322
:104F00001B481B5B34431B481B5B36431B481B5B26
:104F100036431B481B5B36431B481B5B3130431B2E
:104F20004800A483A335A31CA31809A31A80A319BE
:104F300009A3308009A3318009A31D80A40083A3A5
:104F40003580A6315B80A32109A32680A31F09A376
:104F50001E800989E61B09A32580A32009A32280BE
:104F600009A3238009A32480A4A55B8009A32A8028
:104F700009A32F80A32809A327800989FB1B09A364
:104F80002E80A32909A32B8009A32C8009A32D809F
:104F9000A400A335A531A31F0989E61B09A3258019
:104FA000A32009A3228009A3238009A32480A400AD
:104FB000A7022D8B1EA702382A2A2A2046353A201E
:104FC000537065656420262046756E6374696F6E44
:104FD000202A2A2AA7070E8A0A202B208A58A708E7
:104FE0000E4465636F6465728B047C202A2A2A2034
:104FF000444343202A2A2A8B16468B09318B0932D7
:105000008B09338B07303020303520303920313355
:10501000203231203030A7090E2320207C2020614F
:10502000646472207C8B06636E742020312F7320A1
:1050300020616765207C2020646972202073706481
:10504000207C204C313233343536373839303132E8
:105050003334353637383930313233343536373802
:10506000393031207C2053702030342030382031CA
:1050700032203230203238203331A70A0E3D3D2015
:105080002B208A05202B208A08208A04208A0420CD
:105090002B208A04208A04202B208A20202B208A7F
:1050A0001480A71D0E8A0A202B208A12202B208A0A
:1050B00009202B208A20202B208A1480A71E0E6F07
:1050C00076666C2F6F7468657280A71F0E62726FB0
:1050D000616463617374A7200E646363612F64630A
:1050E0006372A7210E8A0A202B208A581B5B336724
:1050F000A709131B481B5B38431B481B5B3130431C
:105100001B481B5B35431B481B5B39431B481B5B20
:1051100033431B481B5B36431B481B5B3335431B28
:105120004800A483A335A31CA31809A31A80A319BC
:1051300009A3308009A3318009A31D800989E01DDE
:10514000A40083A335800989E41DA400A7022D8B48
:105150001EA7023A2A2A2A2046363A205261696C52
:10516000636F6D202A2A2A80A7070E8A0A202B2027
:105170008A12202B208A4F80A7080E4465636F6433
:1051800065728B047C202A2A2A20444343202A2A41
:105190002A8B087C8B1249448B08318B0853534D62
:1051A0008B192A2A2A205061796C6F6164202A2A7F
:1051B0002A80A7090E2320207C20206164647220AD
:1051C0007C8B06636E742020312F7320206167650D
:1051D000207C2020756E7820206D697320206572F8
:1051E00072207C2030313233343536373839303123
:1051F00032333435207C2041614E5252525A522073
:105200007C204348318B047C8B1543483280A70AAD
:105210000E3D3D202B208A05202B208A08208A0461
:10522000208A04202B208A04208A04208A04202B30
:10523000208A10202B208A08202B208A06202B2051
:105240008A17A71D0E8A0A202B208A12202B208A5B
:105250000E202B208A10202B208A08202B208A0643
:10526000202B208A1780A71E0E6F76666C2F6F7416
:1052700068657280A71F0E62726F616463617374E8
:10528000A7200E646363612F64636372A7210E8A93
:105290000A202B208A12202B208A4F801B5B336729
:1052A000A709131B481B5B38431B481B5B3130436A
:1052B0001B481B5B35431B481B5B37431B481B5B71
:1052C00035431B481B5B35431B481B5B36431B4860
:1052D0001B5B3139431B481B5B3131431B481B5B54
:1052E00039431B48A400A483A335A31CA31809A316
:1052F0001A80A31909A3308009A3318009A31D8056
:1053000009A33780A338A40083A33580A31909A378
:105310003780A30C0984A308870985A30D86A309F8
:105320008720A400A7022D8B1EA7023A2A2A2A2032
:1053300046373A205261696C636F6D2044594E20A4
:105340002A2A2A80A7070E8A0A202B208A12202BBD
:10535000208A05202B208A3BA7080E4465636F64D2
:1053600065728B047C202A2A2A20444343202A2A5F
:105370002A8B087C8B077C8B2D2A2A2A20434832D3
:105380002E44594E202A2A2AA7090E2320207C20A9
:105390002061646472207C8B06636E742020312F40
:1053A000732020616765207C204020312032207CE2
:1053B00020706F6D2073706420716F7320746D7036
:1053C0002074726B20652F77206330312063303278
:1053D000206330332063303420633035206330362F
:1053E0002063303720633038207A7370A70A0E3D6F
:1053F0003D202B208A05202B208A08208A04208A21
:1054000004202B203D203D203D202B203D3D3D20F4
:105410003D3D3D203D3D3D203D3D3D203D3D3D2030
:105420003D3D3D203D3D3D203D3D3D203D3D3D2020
:105430003D3D3D203D3D3D203D3D3D203D3D3D2010
:105440003D3D3D203D3D3D80A71D0E8A0A202B207D
:105450008A12202B208A05202B208A3BA71E0E6F44
:1054600076666C2F6F7468657280A71F0E62726F0C
:10547000616463617374A7200E646363612F646366
:105480006372A7210E8A0A202B208A12202B208AE1
:1054900005202B208A3B1B5B3367A709131B481B86
:1054A0005B38431B481B5B3130431B481B5B354358
:1054B0001B481B5B36431B481B5B32431B481B5B73
:1054C00032431B481B5B34431B481B5B34431B4864
:1054D0001B5B34431B481B5B34431B481B5B34433F
:1054E0001B481B5B34431B481B5B34431B481B5B43
:1054F00034431B481B5B34431B481B5B34431B4832
:105500001B5B34431B481B5B34431B481B5B34430E
:105510001B481B5B34431B481B5B34431B48A400E4
:10552000A483A335A31CA31809A31A80A31909A354
:10553000308009A3318009A31D8009899F1EA40022
:1055400083A3358089BD1E80A400A41B5B3F323538
:105550006CA66B1E1B5B3367A707131B48800D09E6
:105560008B63A7073E2A2A2A2048656C70202A2AC6
:105570002A80A6646100A8098B6300001B5B336767
:10558000A707161B481B5B3138431B481B5B32388F
:10559000431B481B5B3138431B480000A6686180F1
:1055A000A709168B5DA7093F5B4B6579626F617236
:1055B000645DA6646100A80946312D46370953771A
:1055C000697463682073637265656EA8A8095E6379
:1055D00009434C49206D6F646580A8095E740956C3
:1055E00054313030206D6F6465A8A8096309436C9D
:1055F000656172206465636F6465722073746174A1
:10560000697374696373A809640944656C6574659A
:10561000206465636F646572206C69737480A80987
:105620006609546F67676C652066696C7465728083
:10563000A8094609456469742066696C74657280BE
:10564000A80968095072696E7420686561646572A2
:10565000206C696E6580A8097009546F67676C6576
:105660002070726574747920636F6C6F72206D6F37
:105670006465A809720952657061696E742073636C
:105680007265656EA8097409546F67676C65207050
:1056900061796C6F6164206465636F64696E6780B3
:1056A000A8097609546F67676C6520766572626F2A
:1056B00073652066696C746572206D6F6465A809F6
:1056C0003F09546869732068656C7080A8093C7351
:1056D000706163653E09506175736520736372651F
:1056E000656E2075706461746580A7213C3C416ED5
:1056F00079206B6579203D20657869743E80A4002F
:10570000A80946312D4637095377697463682073B9
:10571000637265656EA8A809437572736F722D5523
:10572000502F444E095363726F6C6C206465636F35
:10573000646572206C697374206279206F6E6520D5
:105740006C696E65A809506167652D55502F444EF0
:10575000095363726F6C6C206465636F64657220BB
:105760006C697374206279203138206C696E6573BE
:10577000A809486F6D652F456E64095363726F6C9D
:105780006C20746F20626567696E2F656E64206F90
:1057900066206465636F646572206C697374A880A9
:1057A000A8095E6309434C49206D6F646580A809B0
:1057B0005E74095654313030206D6F6465A8A809B5
:1057C0006109546F67676C65206163636573736F0C
:1057D0007279206D6F646580A8096309436C656107
:1057E00072206465636F6465722073746174697399
:1057F00074696373A809640944656C657465206401
:1058000065636F646572206C69737480A8097009A0
:10581000546F67676C652070726574747920636F6C
:105820006C6F72206D6F6465A809720952657061B2
:10583000696E742073637265656EA8097409546F8C
:1058400067676C65207061796C6F61642064656363
:105850006F64696E6780A8093F095468697320689E
:10586000656C7080A8093C73706163653E09506186
:105870007573652073637265656E207570646174FD
:105880006580A7213C3C416E79206B6579203D20E5
:10589000657869743E80A400A41B5B3F32356CA61A
:1058A0002B1E1B5B3367A707131B48800D098B63F7
:1058B000A7073E2A2A2A2046696C746572202A2A84
:1058C0002A80A66461001B5B4BA80000A8098B63BB
:1058D0000000A66461801B5B3367A707161B481B8B
:1058E0005B3130431B481B5B34431B481B5B344319
:1058F0001B481B5B34431B481B5B3131431B481B5C
:105900005B3130431B481B5B34431B481B5B3443F8
:105910001B481B5B34431B481B5B3131431B481B3B
:105920005B3130431B481B5B34431B481B5B3443D8
:105930001B481B5B34431B48A709252D4443432DBB
:10594000A709462D4443432DA709652D5261696C73
:10595000636F6D2DA80909204120262042202620B2
:1059600043202620440909204120262042202620C9
:1059700043202620440909204120262042202620B9
:10598000432026204480A809454E41424C45A3416E
:10599000000973706565643238A3414C094348318E
:1059A000A3418C80A809494E56455254A34104098D
:1059B0007370656564313238A34150094348312E14
:1059C000657272A34190A88C090673706565642B9B
:1059D000666EA34154094348312E756E78A34194F5
:1059E000A80974696D656F7574A3410809666E2016
:1059F00030302D3034A34158094348312E6D69733E
:105A0000A3419880A80973657276696365A3410C08
:105A100009666E2030352D3038A3415C095454534B
:105A2000312E6C6F77A3419CA8096F74682F727335
:105A300076A3411009666E2030392D3132A34160C2
:105A400009545453312E68696768A341A080A8099E
:105A50006D6F6220203762A3411409666E203133D6
:105A60002D3230A34164A8096D6F6220313462A3E6
:105A7000411809666E2032312D3238A3416809433E
:105A80004832A341A480A80961635320313162A345
:105A9000411C09666E2032392D3638A3416C09430A
:105AA00048322E657272A341A880A809616345201F
:105AB000313162A341200962696E53686F7274A329
:105AC0004170094348322E756E78A341AC80A80915
:105AD0006164645F303030A341240962696E4C6FA9
